:100000000C944C000C9474000C9474000C947400C8
:100010000C9474000C9474000C9474000C94740090
:100020000C9474000C9474000C9474000C94740080
:100030000C9474000C9474000C9474000C94740070
:100040000C94DD030C9474000C9410060C9442067E
:100050000C9474000C9474000C9474000C94740050
:100060000C9474000C947400084AD73B3BCE016E8C
:1000700084BCBFFDC12F3D6C74319ABD56833DDAFF
:100080003D00C77F11BED9E4BB4C3E916BAAAABE0E
:10009000000000803F00720611241FBECFEFD8E0A1
:1000A000DEBFCDBF12E0A0E0B1E0E8EBFAE102C0B4
:1000B00005900D92AC37B107D9F723E0ACE7B2E079
:1000C00001C01D92A935B207E1F710E0C8E9D0E000
:1000D00004C02297FE010E94770AC639D107C9F7EA
:1000E0000E94B6060C945A0D0C9400004F925F9239
:1000F0006F927F92AF92BF92CF92DF92EF92FF9278
:100100000F931F93CF93DF93CDB7DEB7EF970FB663
:10011000F894DEBF0FBECDBF5C016A017B01A9016F
:1001200098012CAF3DAF4EAF5FAF0E9433042B015F
:100130003C012CAD3DAD4EAD5FADC701B601F50143
:10014000099520E030E048EC52E40E94C50921EE18
:100150003EE245E652E40E94C5090E94B2088B01C6
:100160000E94330464197509860997099F938F9338
:100170007F936F93C80164E670E00E943F0A9F93EB
:100180008F937F936F9380E091E09F938F931F9263
:100190008BE38F938E010F5F1F4F1F930F930E946E
:1001A0007B0AB8018CEB92E00E9409070FB6F89425
:1001B000DEBF0FBECDBFEF960FB6F894DEBF0FBE09
:1001C000CDBFDF91CF911F910F91FF90EF90DF9006
:1001D000CF90BF90AF907F906F905F904F900895B9
:1001E0004F925F926F927F928F929F92AF92BF9247
:1001F000CF92DF92EF92FF920F931F93CF93DF93F3
:1002000000D000D0CDB7DEB740ED57E060E070E041
:100210008CE792E00E94440320E835E240E050E0A1
:100220006CEB72E08CE792E00E9457038CE792E05F
:100230000E94410369E271E08091AD029091AE02AB
:100240000E9403076AE070E080E090E00E9456049C
:1002500041E060E08CE792E00E94C20326E040E8C3
:1002600055E260E070E08CEB92E00E94AE056BE33B
:1002700071E08CEB92E00E940907812C912CA12C5B
:10028000B12CC401AA2797FDA095BA2F89839A8320
:10029000AB83BC83B501882777FD8095982F0E949A
:1002A000E5082B013C0169817A818B819C810E9448
:1002B000E5086B017C0193018201AB01BC0183EF76
:1002C00097E00E94760093018201B701A6018CE7B6
:1002D00092E00E94760084E1A80EB11C98E7A9166E
:1002E000B104C1F6A4E18A0E911CB8E78B16910403
:1002F00031F66EE471E08CEB92E00E9409078CEB22
:1003000092E00F900F900F900F90DF91CF911F917F
:100310000F91FF90EF90DF90CF90BF90AF909F90A4
:100320008F907F906F905F904F900C940507089589
:100330008F929F92AF92BF92CF92DF92EF92FF92F5
:10034000CF93DF936B017C012CEE31E143E852E463
:100350000E94BA0987FFBCC02CEE31E143E852ECA1
:10036000C701B6010E94460818160CF0B6C020E07E
:1003700030E0A901C701B6010E94460887FF06C008
:10038000F7FAF094F7F8F094CFEF01C0C1E020E065
:1003900030E04AE754E4C701B6010E94C5090E9453
:1003A000B708AB016B3C2FED720710F4D0E00FC023
:1003B0006C2F772767FD7095872F972F0E94E50890
:1003C00028ED33ED46EC5FE30E94C5098AC0AD2FEE
:1003D000B0E0FD01EE0FFF1FEB51FE4F2081318198
:1003E0002417350710F4DF5FF2CF4217530779F077
:1003F000AA0FBB1FAD51BE4F4D915C91FB01E41B99
:10040000F50B261B370BE217F30708F4D150C13068
:1004100021F5DD2309F44FC0D03109F44FC0ED2F91
:10042000F0E0EF01CC0FDD1FCC0FDD1FC35ADE4F14
:10043000EE0FFF1FEE0FFF1FEF55FE4F20813181A2
:1004400042815381C701B6010E94C50928813981C3
:100450004A815B810E94800744C0D11104C0C7015A
:10046000B60190583EC0D03171F1ED2FF0E0DF01C0
:10047000AA0FBB1FAA0FBB1FA35ABE4F8D909D9002
:10048000AD90BC90B7FAB094B7F8B094EE0FFF1FE0
:10049000EE0FFF1FEF55FE4F2081318142815381C6
:1004A000C701B6010E94C5099B01AC01C501B40199
:1004B0000E947F0716C0C701B60113C068ED73ED37
:1004C00086EC9FE30EC068ED73ED86EC9FEB09C0F0
:1004D0006FED7BE187EC9FE304C06FED7BE187EC80
:1004E0009FEBDF91CF91FF90EF90DF90CF90BF9087
:1004F000AF909F908F9008954F925F926F927F92EE
:100500008F929F92AF92BF92CF92DF92EF92FF9223
:100510002B013C0169017A0120E030E0A901C7010B
:10052000B6010E94BA09181624F0C701B601905806
:1005300002C0C701B6012CEA35EC47E257E30E943E
:1005400046081816ECF02CEA35EC47E257E3C301F5
:10055000B2010E94BA0987FD05C06FED7BE187EC0F
:100560009FE35AC02CEA35EC47E257EBC301B201D6
:100570000E94460818168CF760E070E0CB014CC072
:10058000A7019601C301B2010E944A084B015C0118
:1005900020E030E0A901C301B2010E94BA0920E0C5
:1005A00030E0A90187FD1FC0C701B6010E94BA094A
:1005B00087FD10C0C501B401FF90EF90DF90CF9090
:1005C000BF90AF909F908F907F906F905F904F9073
:1005D0000C949801C501B4010E9498012BED3FE0F5
:1005E00049EC5FE317C0C701B6010E94BA0987FD55
:1005F00009C0C501B4010E94980124EE3BEC46E914
:1006000050E408C0C501B4010E9498012BED3FE001
:1006100049E450E40E948007FF90EF90DF90CF9074
:10062000BF90AF909F908F907F906F905F904F9012
:1006300008950F931F93CF93DF93EC01662359F036
:100640000E94270469837A838B839C83DF91CF91F7
:100650001F910F9108950E94270409811A812B810F
:100660003C81601B710B820B930B64367105810515
:10067000910530F763E070E080E090E00E9456045E
:10068000EACF60E00C941903FC0113AA14AA15AA7E
:1006900016AA118212821382148241155105610536
:1006A000710521F0CB01BA010C9456040895FB01A9
:1006B000BA01A901DC01D296FC93EE93D19726E012
:1006C000CF010C94AE051F93CF93DF93EC01162F4F
:1006D00067E072E089A99AA90E9403074AE050E006
:1006E000612F89A99AA90E9477076EE072E089A913
:1006F0009AA90E94030762E370E080E090E0DF9136
:10070000CF911F910C9456041F93CF93DF93EC016C
:10071000162F8D81882389F189A99AA9DC01ED9191
:10072000FC910480F581E02D0995892BA9F307C080
:100730002637310519F12835310509F41D8289A9BB
:100740009AA9DC01ED91FC910480F581E02D0995D9
:100750001816190694F489A99AA9DC01ED91FC9167
:100760000680F781E02D09959C013327233631055A
:10077000F9F6612FCE010E94630383E6DF91CF91EA
:100780001F9108950F931F93CF93DF931F92CDB7BF
:10079000DEB78C01662349F081E0F801858360E0D3
:1007A000C80149830E9484034981F80145830F9061
:1007B000DF91CF911F910F9108951F920F920FB665
:1007C0000F9211242F933F938F939F93AF93BF93D7
:1007D0008091B4029091B502A091B602B091B70297
:1007E0003091B30223E0230F2D3720F40196A11D91
:1007F000B11D05C026E8230F0296A11DB11D20934F
:10080000B3028093B4029093B502A093B602B09362
:10081000B7028091B8029091B902A091BA02B0914A
:10082000BB020196A11DB11D8093B8029093B9023D
:10083000A093BA02B093BB02BF91AF919F918F91E9
:100840003F912F910F900FBE0F901F9018952FB7CB
:10085000F8946091B4027091B5028091B6029091C3
:10086000B7022FBF08953FB7F8948091B8029091D6
:10087000B902A091BA02B091BB0226B5A89B05C0EF
:100880002F3F19F00196A11DB11D3FBF6627782F9C
:10089000892F9A2F620F711D811D911D42E0660FF5
:1008A000771F881F991F4A95D1F708958F929F92BD
:1008B000AF92BF92CF92DF92EF92FF926B017C01D9
:1008C0000E9433044B015C01C114D104E104F10422
:1008D000F1F00E947E070E943304681979098A09A1
:1008E0009B09683E73408105910570F321E0C21AAF
:1008F000D108E108F10888EE880E83E0981EA11C5B
:10090000B11CC114D104E104F10429F7DDCFFF903B
:10091000EF90DF90CF90BF90AF909F908F90089511
:10092000789484B5826084BD84B5816084BD85B5CA
:10093000826085BD85B5816085BDEEE6F0E0808191
:1009400081608083E1E8F0E01082808182608083B2
:10095000808181608083E0E8F0E080818160808335
:10096000E1EBF0E0808184608083E0EBF0E0808167
:1009700081608083EAE7F0E0808184608083808109
:1009800082608083808181608083808180688083B1
:100990001092C1000895FC01818D228D90E0805C51
:1009A0009F4F821B91098F7399270895FC01918DA8
:1009B000828D981731F0828DE80FF11D858D90E0C2
:1009C00008958FEF9FEF0895FC01918D828D981708
:1009D00061F0828DDF01A80FB11D5D968C91928D23
:1009E0009F5F9F73928F90E008958FEF9FEF089520
:1009F00088E696E0892B49F080E090E0892B29F089
:100A00000E94680681110C9400000895FC01848DF9
:100A1000DF01A80FB11DA35ABF4F2C91848D90E028
:100A200001968F739927848FA689B7892C93A08903
:100A3000B1898C9180648C93938D848D981306C0BA
:100A40000288F389E02D80818F7D80830895CF9384
:100A5000DF93EC01888D8823C9F0EA89FB898081C6
:100A600085FD05C0A889B9898C9186FD0FC00FB698
:100A700007FCF5CF808185FFF2CFA889B9898C91D9
:100A800085FFEDCFCE010E940605E7CFDF91CF9124
:100A90000895CF92DF92FF920F931F93CF93DF932E
:100AA0001F92CDB7DEB76C0181E0D60158968C93CA
:100AB00058975B969C915B975C968C915C9798138A
:100AC00007C05096ED91FC915197808185FD2EC015
:100AD000F601038D10E00F5F1F4F0F731127F02EEB
:100AE000F601848DF81211C00FB607FCF9CFD601BC
:100AF0005096ED91FC915197808185FFF1CFC60111
:100B000069830E9406056981EBCF838DE80FF11D93
:100B1000E35AFF4F6083D6015B960C935B97529626
:100B2000ED91FC915397808180620CC0D60156965E
:100B3000ED91FC91579760835096ED91FC91519700
:100B400080818064808381E090E00F90DF91CF917D
:100B50001F910F91FF90DF90CF900895BF92CF9299
:100B6000DF92EF92FF92CF93DF93EC016A017B015A
:100B7000B22EE889F98982E08083411581EE580719
:100B800061057105A1F060E079E08DE390E0A701D7
:100B900096010E94530A2150310941095109569585
:100BA000479537952795211580E1380798F0E88912
:100BB000F989108260E874E88EE190E0A70196015F
:100BC0000E94530A21503109410951095695479510
:100BD00037952795EC85FD853083EE85FF8520834D
:100BE000188EEC89FD89B082EA89FB898081806159
:100BF0008083EA89FB89808188608083EA89FB8918
:100C0000808180688083EA89FB8980818F7D8083F1
:100C1000DF91CF91FF90EF90DF90CF90BF9008953C
:100C20001F920F920FB60F9211242F938F939F93C1
:100C3000EF93FF93E091CC02F091CD028081E0919F
:100C4000D202F091D30282FD12C090818091D50230
:100C50008F5F8F732091D602821751F0E091D502F9
:100C6000F0E0E454FD4F958F8093D50201C0808160
:100C7000FF91EF919F918F912F910F900FBE0F9049
:100C80001F9018951F920F920FB60F9211242F9359
:100C90003F934F935F936F937F938F939F93AF9304
:100CA000BF93EF93FF938CEB92E00E940605FF91B8
:100CB000EF91BF91AF919F918F917F916F915F91D4
:100CC0004F913F912F910F900FBE0F901F9018954D
:100CD0008CEB92E00E94CB0421E0892B09F420E008
:100CE000822F08951092BF021092BE0288EE93E008
:100CF000A0E0B0E08093C0029093C102A093C20232
:100D0000B093C30283E692E09093BD028093BC024D
:100D100085EC90E09093C9028093C80284EC90E047
:100D20009093CB028093CA0280EC90E09093CD0226
:100D30008093CC0281EC90E09093CF028093CE021E
:100D400082EC90E09093D1028093D00286EC90E008
:100D50009093D3028093D2021092D5021092D602C1
:100D60001092D7021092D802089508950E9490041C
:100D70000E94B5060E94F000C8EFD4E00E949701DF
:100D80002097E1F30E94F804F9CFCF92DF92EF921F
:100D9000FF920F931F93CF93DF937C016A01EB01C6
:100DA00000E010E00C151D0571F06991D701ED917F
:100DB000FC910190F081E02DC7010995892B19F074
:100DC0000F5F1F4FEFCFC801DF91CF911F910F91A0
:100DD000FF90EF90DF90CF9008956115710581F03D
:100DE000DB010D900020E9F7AD0141505109461B90
:100DF000570BDC01ED91FC910280F381E02D099409
:100E000080E090E008950C94ED0664E172E00C94AB
:100E1000ED060F931F93CF93DF93EC010E94ED0635
:100E20008C01CE010E940507800F911FDF91CF91A9
:100E30001F910F9108958F929F92AF92BF92DF9270
:100E4000EF92FF920F931F93CF93DF93CDB7DEB74F
:100E5000A1970FB6F894DEBF0FBECDBF7C01F42F73
:100E6000D52ECB0119A2223008F42AE08E010F5DA5
:100E70001F4F822E912CA12CB12C6F2F7D2DA501FF
:100E800094010E94530AF22FD32ECA010150110976
:100E90006A3014F4E0E301C0E7E3E60FD801EC9315
:100EA000232B242B252B49F7B801C7010E94ED06FF
:100EB000A1960FB6F894DEBF0FBECDBFDF91CF91E4
:100EC0001F910F91FF90EF90DF90BF90AF909F9098
:100ED0008F9008952115310541F4DC01ED91FC91CD
:100EE0000190F081E02D642F09940C941B079A0166
:100EF000462F50E060E070E00C946A070895505867
:100F0000BB27AA270ED0FCC1EDD130F0F2D120F0E2
:100F100031F49F3F11F41EF4BDC10EF4E095E7FBE0
:100F2000B3C1E92FFED180F3BA17620773078407B4
:100F3000950718F071F49EF516C20EF4E0950B2E8D
:100F4000BA2FA02D0B01B90190010C01CA01A0011B
:100F50001124FF27591B99F0593F50F4503E68F176
:100F60001A16F040A22F232F342F4427585FF3CFB7
:100F7000469537952795A795F0405395C9F77EF488
:100F80001F16BA0B620B730B840BBAF09150A1F0D1
:100F9000FF0FBB1F661F771F881FC2F70EC0BA0F57
:100FA000621F731F841F48F4879577956795B795DF
:100FB000F7959E3F08F0B3CF9395880F08F09927D7
:100FC000EE0F9795879508958DD158F080E891E0C0
:100FD00009F49EEF8ED128F040E851E059F45EEF1D
:100FE00009C058C1C0C1E92FE0789BD168F3092E30
:100FF000052AC1F3261737074807590738F00E2E80
:1010000007F8E02569F0E025E0640AC0EF6307F81F
:10101000009407FADB01B9019D01DC01CA01AD01B1
:10102000EF9347D06DD10AD05F91552331F02BED6E
:101030003FE049E450FD49EC63CF0895DF93DD279D
:10104000B92FBF7740E85FE31616170648075B071E
:1010500010F4D92F93D19F938F937F936F93F8D1EF
:10106000E8E6F0E01AD14CD12F913F914F915F917A
:1010700098D1DD2349F09058A2EA2AED3FE049ECEF
:101080005FE3D0785D274DDFDF913AC1D9D008F416
:1010900081E008950CD034C12CD140F023D130F040
:1010A00021F45F3F19F0F0C051115EC1F3C039D196
:1010B00098F39923C9F35523B1F3951B550BBB271F
:1010C000AA2762177307840738F09F5F5F4F220FCC
:1010D000331F441FAA1FA9F333D00E2E3AF0E0E8C5
:1010E00030D091505040E695001CCAF729D0FE2F11
:1010F00027D0660F771F881FBB1F261737074807A3
:10110000AB07B0E809F0BB0B802DBF01FF27935858
:101110005F4F2AF09E3F510568F0B6C025C15F3F82
:10112000ECF3983EDCF3869577956795B795F79540
:101130009F5FC9F7880F911D9695879597F9089538
:10114000E1E0660F771F881FBB1F621773078407D4
:10115000BA0720F0621B730B840BBA0BEE1F88F7E3
:10116000E095089504D06894B111FEC00895E1D0CF
:1011700088F09F5790F0B92F9927B751A0F0D1F080
:10118000660F771F881F991F1AF0BA95C9F712C00A
:10119000B13081F0E8D0B1E00895E5C0672F782F35
:1011A0008827B85F39F0B93FCCF386957795679576
:1011B000B395D9F73EF490958095709561957F4FE2
:1011C0008F4F9F4F0895E89409C097FB3EF4909588
:1011D0008095709561957F4F8F4F9F4F9923A9F010
:1011E000F92F96E9BB279395F6958795779567959F
:1011F000B795F111F8CFFAF4BB0F11F460FF1BC0E3
:101200006F5F7F4F8F4F9F4F16C0882311F096E975
:1012100011C0772321F09EE8872F762F05C0662323
:1012200071F096E8862F70E060E02AF09A95660FDC
:10123000771F881FDAF7880F9695879597F9089595
:10124000990F0008550FAA0BE0E8FEEF16161706D7
:10125000E807F907C0F012161306E407F50798F03F
:10126000621B730B840B950B39F40A2661F0232B58
:10127000242B252B21F408950A2609F4A140A695D4
:101280008FEF811D811D089597F99F6780E870E0B9
:1012900060E008959FEF80EC0895DF93CF931F9354
:1012A0000F93FF92EF92DF927B018C01689405C04F
:1012B000DA2EEF0176D0FE01E894A59125913591C3
:1012C00045915591AEF3EF012CDEFE019701A80187
:1012D000DA9479F7DF90EF90FF900F911F91CF9103
:1012E000DF91089500240A941616170618060906B9
:1012F000089500240A94121613061406050608958C
:10130000092E0394000C11F4882352F0BB0F40F413
:10131000BF2B11F460FF04C06F5F7F4F8F4F9F4F53
:10132000089557FD9058440F551F59F05F3F71F0D5
:101330004795880F97FB991F61F09F3F79F087953C
:101340000895121613061406551FF2CF4695F1DFC5
:1013500008C0161617061806991FF1CF8695710555
:10136000610508940895E894BB2766277727CB0189
:1013700097F9089565DF08F48FEF08959B01AC019C
:1013800060E070E080E89FE385CE0BD0B9CFAADFA4
:1013900028F0AFDF18F0952309F076CF7BCF11242A
:1013A000E3CFBFDFA0F3959FD1F3950F50E0551F1A
:1013B000629FF001729FBB27F00DB11D639FAA27AA
:1013C000F00DB11DAA1F649F6627B00DA11D661FF9
:1013D000829F2227B00DA11D621F739FB00DA11D1A
:1013E000621F839FA00D611D221F749F3327A00DD4
:1013F000611D231F849F600D211D822F762F6A2F70
:1014000011249F5750408AF0E1F088234AF0EE0FF4
:10141000FF1FBB1F661F771F881F91505040A9F701
:101420009E3F510570F030CF9FCF5F3FECF3983E69
:10143000DCF3869577956795B795F795E7959F5F68
:10144000C1F7FE2B880F911D9695879597F9089502
:101450009B01AC019ACFAA1BBB1B51E107C0AA1F7D
:10146000BB1FA617B70710F0A61BB70B881F991F45
:101470005A95A9F780959095BC01CD01089597FBE9
:10148000072E16F4009407D077FD09D00E942B0A8E
:1014900007FC05D03EF4909581959F4F0895709577
:1014A00061957F4F0895A1E21A2EAA1BBB1BFD0177
:1014B0000DC0AA1FBB1FEE1FFF1FA217B307E40733
:1014C000F50720F0A21BB30BE40BF50B661F771F8B
:1014D000881F991F1A9469F760957095809590956B
:1014E0009B01AC01BD01CF010895EE0FFF1F0590D8
:1014F000F491E02D0994AEE0B0E0E1E8FAE00C945C
:10150000310D0D891E898F89988D26E02C831A83D1
:10151000098397FF02C080E090E801979E838D8346
:10152000AE01455E5F4F698D7A8DCE0101960E94B6
:10153000AB0A4D815E8157FD0AC02F813885421765
:1015400053070CF49A01F801E20FF31F10822E9654
:10155000E4E00C944D0DACE0B0E0E1EBFAE00C946B
:10156000230D7C016B018A01FC01178216828381A5
:1015700081FFBDC1CE0101964C01F7019381F601B7
:1015800093FD859193FF81916F01882309F4ABC18D
:10159000853239F493FD859193FF81916F018532F6
:1015A00029F4B70190E00E94930CE7CF512C312C25
:1015B00020E02032A0F48B3269F030F4803259F010
:1015C000833269F420612CC08D3239F0803339F4D4
:1015D000216026C02260246023C0286021C027FD2E
:1015E00027C030ED380F3A3078F426FF06C0FAE015
:1015F0005F9E300D1124532E13C08AE0389E300DAB
:101600001124332E20620CC08E3221F426FD6BC1D2
:10161000206406C08C3611F4206802C0883641F47C
:10162000F60193FD859193FF81916F018111C1CFE7
:10163000982F9F7D9554933028F40C5F1F4FFFE344
:10164000F9830DC0833631F0833771F0833509F0AB
:101650005BC022C0F801808189830E5F1F4F442444
:101660004394512C540115C03801F2E06F0E711CE7
:10167000F801A080B18026FF03C0652D70E002C094
:101680006FEF7FEFC5012C870E94880C2C0183012E
:101690002C852F77222E17C03801F2E06F0E711CB7
:1016A000F801A080B18026FF03C0652D70E002C064
:1016B0006FEF7FEFC5012C870E947D0C2C012C85DC
:1016C0002068222E830123FC1BC0832D90E0481646
:1016D0005906B0F4B70180E290E00E94930C3A946E
:1016E000F4CFF50127FC859127FE81915F01B701B9
:1016F00090E00E94930C31103A94F1E04F1A510897
:101700004114510471F7E5C0843611F0893639F57A
:10171000F80127FF07C060817181828193810C5F8E
:101720001F4F08C060817181882777FD8095982FB1
:101730000E5F1F4F2F76B22E97FF09C090958095B0
:10174000709561957F4F8F4F9F4F2068B22E2AE092
:1017500030E0A4010E94C50CA82EA81844C085370B
:1017600029F42F7EB22E2AE030E025C0F22FF97F37
:10177000BF2E8F36C1F018F4883579F0B4C08037A9
:1017800019F0883721F0AFC02F2F2061B22EB4FEA0
:101790000DC08B2D8460B82E09C024FF0AC09F2F76
:1017A0009660B92E06C028E030E005C020E130E0A8
:1017B00002C020E132E0F801B7FE07C0608171810C
:1017C000828193810C5F1F4F06C06081718180E030
:1017D00090E00E5F1F4FA4010E94C50CA82EA81810
:1017E000FB2DFF77BF2EB6FE0BC02B2D2E7FA51431
:1017F00050F4B4FE0AC0B2FC08C02B2D2E7E05C0EA
:101800007A2C2B2D03C07A2C01C0752C24FF0DC01F
:10181000FE01EA0DF11D8081803311F4297E09C09B
:1018200022FF06C07394739404C0822F867809F057
:10183000739423FD13C020FF06C05A2C731418F4B0
:10184000530C5718732C731468F4B70180E290E0BE
:101850002C870E94930C73942C85F5CF731410F48D
:10186000371801C0312C24FF12C0B70180E390E08B
:101870002C870E94930C2C8522FF17C021FF03C0E8
:1018800088E590E002C088E790E0B7010CC0822FA5
:10189000867859F021FD02C080E201C08BE227FD6D
:1018A0008DE2B70190E00E94930CA51438F4B701C3
:1018B00080E390E00E94930C5A94F7CFAA94F4012D
:1018C000EA0DF11D8081B70190E00E94930CA110F8
:1018D000F5CF332009F451CEB70180E290E00E94A9
:1018E000930C3A94F6CFF7018681978102C08FEF6F
:1018F0009FEF2C96E2E10C943F0DFC0105906150A6
:1019000070400110D8F7809590958E0F9F1F089515
:10191000FC016150704001900110D8F780959095BE
:101920008E0F9F1F08950F931F93CF93DF93182F50
:10193000092FEB018B8181FD03C08FEF9FEF20C04A
:1019400082FF10C04E815F812C813D814217530779
:101950007CF4E881F9819F012F5F3F4F3983288311
:10196000108306C0E885F985812F0995892B29F711
:101970002E813F812F5F3F4F3F832E83812F902FFA
:10198000DF91CF911F910F910895FA01AA27283076
:1019900051F1203181F1E8946F936E7F6E5F7F4F3C
:1019A0008F4F9F4FAF4FB1E03ED0B4E03CD0670FB8
:1019B000781F891F9A1FA11D680F791F8A1F911D0B
:1019C000A11D6A0F711D811D911DA11D20D009F45B
:1019D00068943F912AE0269F11243019305D31939D
:1019E000DEF6CF010895462F4770405D4193B3E086
:1019F0000FD0C9F7F6CF462F4F70405D4A3318F02D
:101A0000495D31FD4052419302D0A9F7EACFB4E0DD
:101A1000A6959795879577956795BA95C9F7009795
:101A20006105710508959B01AC010A2E0694579536
:101A3000479537952795BA95C9F7620F731F841F8D
:101A4000951FA01D08952F923F924F925F926F9223
:101A50007F928F929F92AF92BF92CF92DF92EF923E
:101A6000FF920F931F93CF93DF93CDB7DEB7CA1BBF
:101A7000DB0B0FB6F894DEBF0FBECDBF09942A88EA
:101A8000398848885F846E847D848C849B84AA8492
:101A9000B984C884DF80EE80FD800C811B81AA811F
:101AA000B981CE0FD11D0FB6F894DEBF0FBECDBFEA
:081AB000ED010895F894FFCF49
:101AB800466B742E2025642E253264206465677277
:101AC80065657320696E20256C64206D6963726F8B
:101AD8007365636F6E64732E00564D4450565F31C4
:101AE8007C315F564D4450560D0A00537461727430
:101AF800206174616E32206D6174683A2000456E11
:101B080064206174616E32206D61746800000000A9
:101B1800002406A63CFB741C3EB01F923ECF13EF78
:101B28003E9AEE313F2F15533F5376763FD8D88DE6
:101B38003FCB2DA13F910AAB3F43FFB43FD6FFB93E
:101B48003F5C03BF3F1821C03F925CC23FD8D3C659
:101B58003F0000803FE78D673FE78D273F0000008B
:101B68003F54E4B03EFA0D533E34F6153E5D91C342
:101B78003D75385F3DB779C83C9159623C86B8C914
:101B88003B7D24633BCF09CA3AA6A79F3AC6A53333
:101B98003A0000000000004401D602E8036005AAEC
:101BA800076E09050C4510A9180021A1313C426AAD
:101BB80063DB6F2A95CADF564D4450435F005F567A
:101BC8004D4450430D0A004572726F723A204174B9
:101BD80074656D707420746F207365742061207251
:101BE8006561642D6F6E6C79207661726961626CD3
:101BF80065206F7220646174612074797065206E4D
:101C08006F7420737570706F727465640D0A0000CC
:101C18000000004905C506CB04E404D60427056E78
:0C1C2800616E00696E66006F7666000059
:00000001FF
