:100000000C9444000C946C000C946C000C946C00E8
:100010000C946C000C946C000C946C000C946C00B0
:100020000C946C000C946C000C946C000C946C00A0
:100030000C946C000C946C000C946C000C946C0090
:100040000C9447020C946C000C947A040C94AC044D
:100050000C946C000C946C000C946C000C946C0070
:100060000C946C000C946C0005A84CCDB2D44EB925
:100070003836A9020C50B9918688083CA6AAAA2A4B
:10008000BE000000803FDC0411241FBECFEFD8E08B
:10009000DEBFCDBF13E0A0E0B1E0E8E8F6E102C0CA
:1000A00005900D92A034B107D9F724E0A0E4B3E0A5
:1000B00001C01D92AD31B207E1F710E0C8E8D0E011
:1000C00004C02297FE010E945F08C638D107C9F715
:1000D0000E9420050C94420B0C940000AF92BF923A
:1000E000CF92DF92EF92FF920F931F93CF93DF9304
:1000F000CDB7DEB7E3970FB6F894DEBF0FBECDBF26
:100100008C015B010E949D026B017C01B501882777
:1001100077FD8095982F0E947F06F801099521EEC2
:100120003EE245E652E40E946C0720E030E048ECF5
:1001300052E40E946C070E944C068B010E949D02B3
:100140006C197D098E099F099F938F937F936F93FD
:10015000C80164E670E00E9427089F938F937F9305
:100160006F9380E091E09F938F931F9283E38F932F
:100170008E010F5F1F4F1F930F930E946308B801FA
:1001800080E893E00E9473050FB6F894DEBF0FBEBF
:10019000CDBFE3960FB6F894DEBF0FBECDBFDF91A3
:1001A000CF911F910F91FF90EF90DF90CF90BF9074
:1001B000AF900895CF93DF9340ED57E060E070E09B
:1001C00080E493E00E94AE0120E835E240E050E098
:1001D00060E873E080E493E00E94C10180E493E072
:1001E0000E94AB0168E271E080917103909172030B
:1001F0000E946D056AE070E080E090E00E94C0021D
:1002000041E060E080E493E00E942C0226E040E8B8
:1002100055E260E070E080E893E00E9418046AE331
:1002200071E080E893E00E947305C0E0D0E0BE0179
:1002300089E496E00E946E00BE0182E391E00E9494
:100240006E002196C536D10591F76DE471E080E826
:1002500093E00E94730580E893E0DF91CF910C94C6
:100260006F050895CF92DF92EF92FF9221EE3EE26A
:1002700045E652E40E946C076B017C0120E030E00F
:10028000A9010E946807181624F0F7FAF094F7F80D
:10029000F094C701B6010E945106693641E0740727
:1002A00030F0CB0168E671E00E941308BC01653BA9
:1002B000710520F0645B71092FEF01C021E06B35FF
:1002C000710538F0219584EB90E0AC01461B570B8B
:1002D000BA01660F771F660F771FFB01E25AFE4FC8
:1002E000213029F4608171818281938107C08081EE
:1002F0009181A281B381BC01CD019058FF90EF9014
:10030000DF90CF9008950F931F93CF93DF93EC016D
:10031000662359F00E94910269837A838B839C83C0
:10032000DF91CF911F910F9108950E949102098151
:100330001A812B813C81601B710B820B930B6436FD
:1003400071058105910530F763E070E080E090E091
:100350000E94C002EACF60E00C948301FC0113AA62
:1003600014AA15AA16AA11821282138214824115A8
:1003700051056105710521F0CB01BA010C94C00251
:100380000895FB01BA01A901DC01D296FC93EE931A
:10039000D19726E0CF010C9418041F93CF93DF93DD
:1003A000EC01162F6AEC72E089A99AA90E946D05EA
:1003B0004AE050E0612F89A99AA90E94E10561ED08
:1003C00072E089A99AA90E946D0562E370E080E05D
:1003D00090E0DF91CF911F910C94C0021F93CF93B7
:1003E000DF93EC01162F8D81882389F189A99AA9C1
:1003F000DC01ED91FC910480F581E02D0995892BBC
:10040000A9F307C02637310519F12835310509F45C
:100410001D8289A99AA9DC01ED91FC910480F581E6
:10042000E02D09951816190694F489A99AA9DC01FA
:10043000ED91FC910680F781E02D09959C01332711
:1004400023363105F9F6612FCE010E94CD0183E6F6
:10045000DF91CF911F9108950F931F93CF93DF9357
:100460001F92CDB7DEB78C01662349F081E0F80119
:10047000858360E0C80149830E94EE014981F8014B
:1004800045830F90DF91CF911F910F9108951F9297
:100490000F920FB60F9211242F933F938F939F9338
:1004A000AF93BF938091780390917903A0917A03E1
:1004B000B0917B033091770323E0230F2D3720F495
:1004C0000196A11DB11D05C026E8230F0296A11DAE
:1004D000B11D209377038093780390937903A093C1
:1004E0007A03B0937B0380917C0390917D03A0916C
:1004F0007E03B0917F030196A11DB11D80937C0303
:1005000090937D03A0937E03B0937F03BF91AF913F
:100510009F918F913F912F910F900FBE0F901F9041
:1005200018952FB7F89460917803709179038091B2
:100530007A0390917B032FBF08953FB7F894809181
:100540007C0390917D03A0917E03B0917F0326B53B
:10055000A89B05C02F3F19F00196A11DB11D3FBFFB
:100560006627782F892F9A2F620F711D811D911D8B
:1005700042E0660F771F881F991F4A95D1F70895AB
:100580008F929F92AF92BF92CF92DF92EF92FF92A3
:100590006B017C010E949D024B015C01C114D104DE
:1005A000E104F104F1F00E94E8050E949D0268193F
:1005B00079098A099B09683E73408105910570F3AA
:1005C00021E0C21AD108E108F10888EE880E83E024
:1005D000981EA11CB11CC114D104E104F10429F737
:1005E000DDCFFF90EF90DF90CF90BF90AF909F90C6
:1005F0008F900895789484B5826084BD84B58160BD
:1006000084BD85B5826085BD85B5816085BDEEE61A
:10061000F0E0808181608083E1E8F0E010828081F9
:1006200082608083808181608083E0E8F0E0808167
:1006300081608083E1EBF0E0808184608083E0EB87
:10064000F0E0808181608083EAE7F0E0808184606F
:1006500080838081826080838081816080838081CB
:10066000806880831092C1000895FC01818D228DE5
:1006700090E0805C9F4F821B91098F7399270895AA
:10068000FC01918D828D981731F0828DE80FF11D5C
:10069000858D90E008958FEF9FEF0895FC01918D77
:1006A000828D981761F0828DDF01A80FB11D5D96D4
:1006B0008C91928D9F5F9F73928F90E008958FEF42
:1006C0009FEF089582ED94E0892B49F080E090E05F
:1006D000892B29F00E94D20481110C940000089506
:1006E000FC01848DDF01A80FB11DA35ABF4F2C91CF
:1006F000848D90E001968F739927848FA689B7899E
:100700002C93A089B1898C9180648C93938D848D76
:10071000981306C00288F389E02D80818F7D808345
:100720000895CF93DF93EC01888D8823C9F0EA897F
:10073000FB89808185FD05C0A889B9898C9186FDDA
:100740000FC00FB607FCF5CF808185FFF2CFA889D7
:10075000B9898C9185FFEDCFCE010E947003E7CF60
:10076000DF91CF910895CF92DF92FF920F931F9365
:10077000CF93DF931F92CDB7DEB76C0181E0D60136
:1007800058968C9358975B969C915B975C968C914E
:100790005C97981307C05096ED91FC91519780811A
:1007A00085FD2EC0F601038D10E00F5F1F4F0F7304
:1007B0001127F02EF601848DF81211C00FB607FC38
:1007C000F9CFD6015096ED91FC915197808185FF2C
:1007D000F1CFC60169830E9470036981EBCF838DDD
:1007E000E80FF11DE35AFF4F6083D6015B960C932F
:1007F0005B975296ED91FC915397808180620CC07B
:10080000D6015696ED91FC91579760835096ED91E5
:10081000FC91519780818064808381E090E00F900B
:10082000DF91CF911F910F91FF90DF90CF900895AE
:10083000BF92CF92DF92EF92FF92CF93DF93EC01C2
:100840006A017B01B22EE889F98982E08083411533
:1008500081EE580761057105A1F060E079E08DE354
:1008600090E0A70196010E943B08215031094109FF
:1008700051095695479537952795211580E13807F9
:1008800098F0E889F989108260E874E88EE190E0D8
:10089000A70196010E943B082150310941095109E5
:1008A0005695479537952795EC85FD853083EE85E0
:1008B000FF852083188EEC89FD89B082EA89FB8947
:1008C000808180618083EA89FB8980818860808360
:1008D000EA89FB89808180688083EA89FB8980813D
:1008E0008F7D8083DF91CF91FF90EF90DF90CF904D
:1008F000BF9008951F920F920FB60F9211242F935D
:100900008F939F93EF93FF93E0919003F091910366
:100910008081E0919603F091970382FD12C090814F
:10092000809199038F5F8F7320919A03821751F002
:10093000E0919903F0E0E058FC4F958F8093990384
:1009400001C08081FF91EF919F918F912F910F9026
:100950000FBE0F901F9018951F920F920FB60F9217
:1009600011242F933F934F935F936F937F938F93B4
:100970009F93AF93BF93EF93FF9380E893E00E9420
:100980007003FF91EF91BF91AF919F918F917F91F4
:100990006F915F914F913F912F910F900FBE0F90EC
:1009A0001F90189580E893E00E94350321E0892B81
:1009B00009F420E0822F089510928303109282039D
:1009C00088EE93E0A0E0B0E08093840390938503E9
:1009D000A0938603B093870386E293E0909381030C
:1009E0008093800385EC90E090938D0380938C033B
:1009F00084EC90E090938F0380938E0380EC90E0E2
:100A0000909391038093900381EC90E090939303F3
:100A10008093920382EC90E09093950380939403EB
:100A200086EC90E09093970380939603109299033D
:100A300010929A0310929B0310929C0308950895BC
:100A40000E94FA020E941F050E94DA00C2E6D3E06B
:100A50000E9431012097E1F30E946203F9CFCF9207
:100A6000DF92EF92FF920F931F93CF93DF937C015E
:100A70006A01EB0100E010E00C151D0571F06991B1
:100A8000D701ED91FC910190F081E02DC70109950E
:100A9000892B19F00F5F1F4FEFCFC801DF91CF9166
:100AA0001F910F91FF90EF90DF90CF900895611507
:100AB000710581F0DB010D900020E9F7AD01415097
:100AC0005109461B570BDC01ED91FC910280F3812B
:100AD000E02D099480E090E008950C94570567EDAF
:100AE00072E00C9457050F931F93CF93DF93EC01A3
:100AF0000E9457058C01CE010E946F05800F911F47
:100B0000DF91CF911F910F9108958F929F92AF9295
:100B1000BF92DF92EF92FF920F931F93CF93DF93D9
:100B2000CDB7DEB7A1970FB6F894DEBF0FBECDBF2D
:100B30007C01F42FD52ECB0119A2223008F42AE033
:100B40008E010F5D1F4F822E912CA12CB12C6F2F87
:100B50007D2DA50194010E943B08F22FD32ECA01DE
:100B6000015011096A3014F4E0E301C0E7E3E60F35
:100B7000D801EC93232B242B252B49F7B801C7016F
:100B80000E945705A1960FB6F894DEBF0FBECDBFE9
:100B9000DF91CF911F910F91FF90EF90DF90BF9069
:100BA000AF909F908F9008952115310541F4DC019D
:100BB000ED91FC910190F081E02D642F09940C944B
:100BC00085059A01462F50E060E070E00C94D40552
:100BD0000895FDD030F002D120F031F49F3F11F4A0
:100BE0001EF4F2C00EF4E095E7FBE8C0E92F47D110
:100BF00080F3BA17620773078407950718F071F43A
:100C00009EF55FC10EF4E0950B2EBA2FA02D0B01BF
:100C1000B90190010C01CA01A0011124FF27591B41
:100C200099F0593F50F4503E68F11A16F040A22F47
:100C3000232F342F4427585FF3CF469537952795B8
:100C4000A795F0405395C9F77EF41F16BA0B620BB7
:100C5000730B840BBAF09150A1F0FF0FBB1F661FFE
:100C6000771F881FC2F70EC0BA0F621F731F841F41
:100C700048F4879577956795B795F7959E3F08F067
:100C8000B3CF9395880F08F09927EE0F9795879526
:100C90000895ACD0E395E2C004D06894B11112C1BC
:100CA0000895F5D088F09F5790F0B92F9927B75144
:100CB000A0F0D1F0660F771F881F991F1AF0BA9520
:100CC000C9F712C0B13081F0FCD0B1E00895F9C08D
:100CD000672F782F8827B85F39F0B93FCCF3869516
:100CE00077956795B395D9F73EF490958095709573
:100CF00061957F4F8F4F9F4F0895E89409C097FBF0
:100D00003EF490958095709561957F4F8F4F9F4FE2
:100D10009923A9F0F92F96E9BB279395F695879526
:100D200077956795B795F111F8CFFAF4BB0F11F4E9
:100D300060FF1BC06F5F7F4F8F4F9F4F16C0882390
:100D400011F096E911C0772321F09EE8872F762FC6
:100D500005C0662371F096E8862F70E060E02AF007
:100D60009A95660F771F881FDAF7880F96958795F3
:100D700097F90895990F0008550FAA0BE0E8FEEFC8
:100D800016161706E807F907C0F012161306E4074F
:100D9000F50798F0621B730B840B950B39F40A2648
:100DA00061F0232B242B252B21F408950A2609F426
:100DB000A140A6958FEF811D811D089597F99F672A
:100DC00080E870E060E008959FEF80EC08950024D3
:100DD0000A941616170618060906089500240A94A0
:100DE00012161306140605060895EECF50D0E8F348
:100DF000E894E0E0BB279F57F0F02AED3FE049EC94
:100E000006C0EE0FBB0F661F771F881F28F0B23A8F
:100E100062077307840728F0B25A620B730B840BC6
:100E2000E3959A9572F7803830F49A95BB0F661F58
:100E3000771F881FD2F79048B4C0092E0394000C86
:100E400011F4882352F0BB0F40F4BF2B11F460FF64
:100E500004C06F5F7F4F8F4F9F4F0895EF93E0FF68
:100E600006C0A2EA2AED3FE049EC5FEBBFDEE5DF1A
:100E70000F90039401FC9058E8E6F0E09EC057FD07
:100E80009058440F551F59F05F3F71F04795880FF8
:100E900097FB991F61F09F3F79F08795089512168F
:100EA00013061406551FF2CF4695F1DF08C016163B
:100EB00017061806991FF1CF8695710561050894EC
:100EC0000895E894BB2766277727CB0197F9089503
:100ED00051DF08F48FEF08950BD0AFCF78DF28F003
:100EE0007DDF18F0952309F069CF6ECF1124EACF8A
:100EF000C6DFA0F3959FD1F3950F50E0551F629F79
:100F0000F001729FBB27F00DB11D639FAA27F00D62
:100F1000B11DAA1F649F6627B00DA11D661F829F89
:100F20002227B00DA11D621F739FB00DA11D621F6E
:100F3000839FA00D611D221F749F3327A00D611D8B
:100F4000231F849F600D211D822F762F6A2F11246D
:100F50009F5750408AF0E1F088234AF0EE0FFF1FC0
:100F6000BB1F661F771F881F91505040A9F79E3FF7
:100F7000510570F023CFA6CF5F3FECF3983EDCF332
:100F8000869577956795B795F795E7959F5FC1F734
:100F9000FE2B880F911D9695879597F908959F3F91
:100FA00031F0915020F4879577956795B795880F24
:100FB000911D9695879597F908959F938F937F93A9
:100FC0006F93FF93EF939B01AC0186DFEF91FF914D
:100FD00005D02F913F914F915F917ECFDF93CF93BB
:100FE0001F930F93FF92EF92DF927B018C01689425
:100FF00005C0DA2EEF017CDFFE01E894A591259172
:10100000359145915591AEF3EF01F0DDFE01970169
:10101000A801DA9479F7DF90EF90FF900F911F917C
:10102000CF91DF910895AA1BBB1B51E107C0AA1FF6
:10103000BB1FA617B70710F0A61BB70B881F991F79
:101040005A95A9F780959095BC01CD01089597FB1D
:10105000072E16F4009407D077FD09D00E941308DC
:1010600007FC05D03EF4909581959F4F08957095AB
:1010700061957F4F0895A1E21A2EAA1BBB1BFD01AB
:101080000DC0AA1FBB1FEE1FFF1FA217B307E40767
:10109000F50720F0A21BB30BE40BF50B661F771FBF
:1010A000881F991F1A9469F760957095809590959F
:1010B0009B01AC01BD01CF010895EE0FFF1F05900C
:1010C000F491E02D0994AEE0B0E0E9E6F8E00C948C
:1010D000190B0D891E898F89988D26E02C831A8320
:1010E000098397FF02C080E090E801979E838D837B
:1010F000AE01455E5F4F698D7A8DCE0101960E94EB
:1011000093084D815E8157FD0AC02F8138854217B3
:1011100053070CF49A01F801E20FF31F10822E9688
:10112000E4E00C94350BACE0B0E0E9E9F8E00C94B5
:101130000B0B7C016B018A01FC01178216828381F3
:1011400081FFBDC1CE0101964C01F7019381F601EB
:1011500093FD859193FF81916F01882309F4ABC1C1
:10116000853239F493FD859193FF81916F0185322A
:1011700029F4B70190E00E947B0AE7CF512C312C73
:1011800020E02032A0F48B3269F030F4803259F044
:10119000833269F420612CC08D3239F0803339F408
:1011A000216026C02260246023C0286021C027FD62
:1011B00027C030ED380F3A3078F426FF06C0FAE049
:1011C0005F9E300D1124532E13C08AE0389E300DDF
:1011D0001124332E20620CC08E3221F426FD6BC107
:1011E000206406C08C3611F4206802C0883641F4B1
:1011F000F60193FD859193FF81916F018111C1CF1C
:10120000982F9F7D9554933028F40C5F1F4FFFE378
:10121000F9830DC0833631F0833771F0833509F0DF
:101220005BC022C0F801808189830E5F1F4F442478
:101230004394512C540115C03801F2E06F0E711C1B
:10124000F801A080B18026FF03C0652D70E002C0C8
:101250006FEF7FEFC5012C870E94700A2C0183017C
:101260002C852F77222E17C03801F2E06F0E711CEB
:10127000F801A080B18026FF03C0652D70E002C098
:101280006FEF7FEFC5012C870E94650A2C012C852A
:101290002068222E830123FC1BC0832D90E048167A
:1012A0005906B0F4B70180E290E00E947B0A3A94BC
:1012B000F4CFF50127FC859127FE81915F01B701ED
:1012C00090E00E947B0A31103A94F1E04F1A5108E5
:1012D0004114510471F7E5C0843611F0893639F5AF
:1012E000F80127FF07C060817181828193810C5FC3
:1012F0001F4F08C060817181882777FD8095982FE6
:101300000E5F1F4F2F76B22E97FF09C090958095E4
:10131000709561957F4F8F4F9F4F2068B22E2AE0C6
:1013200030E0A4010E94AD0AA82EA81844C0853759
:1013300029F42F7EB22E2AE030E025C0F22FF97F6B
:10134000BF2E8F36C1F018F4883579F0B4C08037DD
:1013500019F0883721F0AFC02F2F2061B22EB4FED4
:101360000DC08B2D8460B82E09C024FF0AC09F2FAA
:101370009660B92E06C028E030E005C020E130E0DC
:1013800002C020E132E0F801B7FE07C06081718140
:10139000828193810C5F1F4F06C06081718180E064
:1013A00090E00E5F1F4FA4010E94AD0AA82EA8185E
:1013B000FB2DFF77BF2EB6FE0BC02B2D2E7FA51465
:1013C00050F4B4FE0AC0B2FC08C02B2D2E7E05C01E
:1013D0007A2C2B2D03C07A2C01C0752C24FF0DC054
:1013E000FE01EA0DF11D8081803311F4297E09C0D0
:1013F00022FF06C07394739404C0822F867809F08C
:10140000739423FD13C020FF06C05A2C731418F4E4
:10141000530C5718732C731468F4B70180E290E0F2
:101420002C870E947B0A73942C85F5CF731410F4DB
:10143000371801C0312C24FF12C0B70180E390E0BF
:101440002C870E947B0A2C8522FF17C021FF03C036
:1014500088E590E002C088E790E0B7010CC0822FD9
:10146000867859F021FD02C080E201C08BE227FDA1
:101470008DE2B70190E00E947B0AA51438F4B70111
:1014800080E390E00E947B0A5A94F7CFAA94F4017B
:10149000EA0DF11D8081B70190E00E947B0AA11046
:1014A000F5CF332009F451CEB70180E290E00E94DD
:1014B0007B0A3A94F6CFF7018681978102C08FEFBD
:1014C0009FEF2C96E2E10C94270BFC0105906150F4
:1014D00070400110D8F7809590958E0F9F1F08954A
:1014E000FC016150704001900110D8F780959095F3
:1014F0008E0F9F1F08950F931F93CF93DF93182F85
:10150000092FEB018B8181FD03C08FEF9FEF20C07E
:1015100082FF10C04E815F812C813D8142175307AD
:101520007CF4E881F9819F012F5F3F4F3983288345
:10153000108306C0E885F985812F0995892B29F745
:101540002E813F812F5F3F4F3F832E83812F902F2E
:10155000DF91CF911F910F910895FA01AA272830AA
:1015600051F1203181F1E8946F936E7F6E5F7F4F70
:101570008F4F9F4FAF4FB1E03ED0B4E03CD0670FEC
:10158000781F891F9A1FA11D680F791F8A1F911D3F
:10159000A11D6A0F711D811D911DA11D20D009F48F
:1015A00068943F912AE0269F11243019305D3193D1
:1015B000DEF6CF010895462F4770405D4193B3E0BA
:1015C0000FD0C9F7F6CF462F4F70405D4A3318F061
:1015D000495D31FD4052419302D0A9F7EACFB4E012
:1015E000A6959795879577956795BA95C9F70097CA
:1015F0006105710508959B01AC010A2E069457956B
:10160000479537952795BA95C9F7620F731F841FC1
:10161000951FA01D08952F923F924F925F926F9257
:101620007F928F929F92AF92BF92CF92DF92EF9272
:10163000FF920F931F93CF93DF93CDB7DEB7CA1BF3
:10164000DB0B0FB6F894DEBF0FBECDBF09942A881E
:10165000398848885F846E847D848C849B84AA84C6
:10166000B984C884DF80EE80FD800C811B81AA8153
:10167000B981CE0FD11D0FB6F894DEBF0FBECDBF1E
:08168000ED010895F894FFCF7D
:10168800466B742E2025642E2532642064656772AB
:1016980065657320696E20256C64206D6963726FBF
:1016A8007365636F6E647300564D4450565F317CAA
:1016B800315F564D4450560D0A00426567696E20E9
:1016C800636F73696E65206D6174683A00456E6476
:1016D8006520636F73696E65206D61746800000032
:1016E800803F0AF67F3F17D87F3F37A67F3F5B6072
:1016F8007F3FA3067F3FFE987E3F7F177E3F348261
:101708007D3F1FD97C3F611C7C3FE84B7B3FE867EE
:101718007A3F5070793F6265783FED46773F4415D0
:10172800763F68D0743F7978733F880D723FB88FE1
:10173800703F19FF6E3FEE5B6D3F37A66B3F16DEBD
:10174800693FCD03683F5D17663F0919643FE108AB
:10175800623F19E75F3FD0B35D3F4C6F5B3FAC1909
:10176800593F25B3563FD63B543FF2B3513FBD1BBB
:101778004F3F69734C3F17BB493F0AF3463F761BFF
:10178800443FAD34413FC03E3E3F043A3B3FAB2669
:10179800383FF704353F1BD5313F6C972E3F2B4C14
:1017A8002B3F7CF3273FC18D243F1E1B213FF69B17
:1017B8001D3F8C101A3F1479163FE0D5123F46277B
:1017C8000F3F766D0B3FC6A8073F88D9033F00003F
:1017D800003F0439F83EA25EF03E6171E83E2A728D
:1017E800E03E6361D83ED53FD03EE50DC83E7DCC96
:1017F800BF3E037CB73E3F1DAF3ED9B0A63E7A3709
:101808009E3EC8B1953E4B208D3EED83843E67BA1F
:10181800773E8E59663EE2E6543E6F63433EC8D03B
:10182800313E3C30203E5E830E3E7496F93DC71231
:10183800D63DD87EB23D3CDC8E3D465E563D41F2FB
:101848000E3D7FF78E3C00000000564D4450435F2C
:10185800005F564D4450430D0A004572726F723A4C
:1018680020417474656D707420746F2073657420E2
:101878006120726561642D6F6E6C79207661726982
:1018880061626C65206F7220646174612074797084
:1018980065206E6F7420737570706F727465640D57
:1018A8000A0000000000B3032F0535034E03400370
:1018B80091036E616E00696E66006F7666002E0099
:00000001FF
